:020000040800F2
:1000000000500020E12000082721000829210008D5
:100010002B2100082D2100082F21000800000000DE
:10002000000000000000000000000000E1020008E5
:10003000332100080000000071030008B503000828
:100040003B2100083D2100083F2100084121000814
:1000500043210008452100084721000849210008E4
:100060004B2100084D2100084F21000851210008B4
:100070005321000855210008572100085921000884
:100080005B2100085D2100085F2100086121000854
:100090006321000865210008672100086921000824
:1000A0006B2100086D2100086F21000871210008F4
:1000B00073210008752100087721000879210008C4
:1000C0007B2100087D2100087F2100088121000894
:1000D00083210008611F000887210008892100088A
:1000E0008B2100088D2100088F21000810B5054CD8
:1000F000237833B9044B13B10448AFF300800123D4
:10010000237010BD8400002000000000902500082E
:10011000084B10B51BB108490848AFF300800848E8
:10012000036803B910BD074B002BFBD0BDE810409E
:10013000184700BF0000000088000020902500083C
:100140008400002000000000154B002B08BF134B5B
:100150009D46A3F5803A00218B460F461348144A6A
:10016000121A02F0E0F80F4B002B00D098470E4B0C
:10017000002B00D098470020002104000D000D48FE
:10018000002802D00C48AFF3008002F09BF820005A
:10019000290001F09FFE02F081F800BF0000080076
:1001A000005000200000000000000000840000203B
:1001B000F0450020000000000000000000F10803EE
:1001C0004FF0FF310022816002604360C360036131
:1001D000704700BF00230361704700BF43684B6056
:1001E0009A688A609A68516099600861036801336F
:1001F0000360704730B40D686B1C11D000F1080229
:1002000000E01A4653681C68A542FAD24B60996018
:100210008A6051600861036830BC01330360704735
:1002200002695368F2E700BF426881680369916020
:100230008268416851605A68904204BF82685A607F
:10024000002202611A68013A1A601868704700BFFC
:100250000E4B82B01B6800220133019208D04FF090
:10026000100383F31188BFF36F8FBFF34F8FFEE747
:100270004FF0100383F31188BFF36F8FBFF34F8FDD
:10028000019B002BFCD002B0704700BF0000002093
:1002900006480068006880F3088862B661B6BFF35C
:1002A0004F8FBFF36F8F00DF00BF000008ED00E04D
:1002B00010B421F001014FF0807400E91200044BEA
:1002C00040F8202C40F80C3C10BC4038704700BF70
:1002D00051020008000000000000000000000000C3
:1002E000074B19680868B0E8F00F80F30988BFF37E
:1002F0006F8F4FF0000080F311884EF00D0E7047A5
:10030000604500204FF0100383F31188BFF36F8F17
:10031000BFF34F8F0A4A13680133012B136000D0DB
:100320007047084B1B6813F0FF0FF9D04FF0100314
:1003300083F31188BFF36F8FBFF34F8FFEE700BFCA
:100340000000002004ED00E0084A136843B94FF0B4
:10035000100383F31188BFF36F8FBFF34F8FFEE756
:10036000013B13600BB983F3118870470000002034
:10037000EFF30980BFF36F8F0D4B1A6820E9F00F80
:1003800010602DE908404FF0100080F3118800F054
:10039000A7FF4FF0000080F31188BDE808401968FE
:1003A0000868B0E8F00F80F30988BFF36F8F7047DB
:1003B0006045002008B54FF0100383F31188BFF3A8
:1003C0006F8FBFF34F8F00F039FE18B1034B4FF022
:1003D00080521A60002383F3118808BD04ED00E009
:1003E00030B4064B064D074C0748002207211A601F
:1003F0002A600460196030BC704700BF10E000E064
:1004000018E000E03F19010014E000E010B5294BAE
:1004100082B01A78FF21D2B2019219701B78264956
:10042000DBB28DF803309DF803309DF803200720E0
:10043000224C03F0100308601006237048BF062307
:1004400001D40FE003469DF80320581E5200D2B29B
:100450008DF803209DF803201206F3D4032B0B60C4
:10046000154C08D04FF0100383F31188BFF36F8F42
:10047000BFF34F8FFEE701990E481B02104AC9B225
:1004800003F4E063236001701368002443F47003F5
:100490001360136843F070431360FFF7A1FF094B2B
:1004A0001C60FFF7F5FE00F01BFFFFF7D1FE2046B2
:1004B00002B010BD00E400E0A4000020A000002075
:1004C00020ED00E000000020EFF305830F2B0ED994
:1004D0001049114A5B5C12789A4208D94FF0100318
:1004E00083F31188BFF36F8FBFF34F8FFEE70B4B82
:1004F0000B4A1B68126803F4E063934208D94FF07B
:10050000100383F31188BFF36F8FBFF34F8FFEE7A4
:10051000704700BFF0E300E0A00000200CED00E019
:10052000A4000020114B1A68824201D21346FAE758
:1005300010B459685C18A04203D14468184621449D
:10054000596041684418A2420AD1094C2468A24269
:1005500006D05268114441601A681268026000E0D7
:100560000260984218BF186010BC7047B0000020AD
:10057000AC0000202DE9F041044600F057FD44494D
:100580000B68002B5AD0434B1E68344250D1002CCC
:100590004ED004F1080358071CBF23F007030833AB
:1005A000002B45D0DFF8FC80D8F80050AB423FD894
:1005B000394A146803E0206820B122460446606886
:1005C0008342F8D809688C4232D0216817681160DC
:1005D0006268D11A102910D9E018420708D04FF0EC
:1005E000100383F31188BFF36F8FBFF34F8FFEE7C4
:1005F00041606360FFF796FF62682849AB1A08689C
:10060000C8F80030834238BF0B60164300232360D4
:10061000666007F1080500F0B7FD6B070BD04FF0DF
:10062000100383F31188BFF36F8FBFF34F8FFEE783
:1006300000F0AAFD00252846BDE8F081184A5507BC
:1006400023D0D01D20F0070002F5884302461B1A74
:100650001344083B23F00703DFF840E0981A114DDC
:10066000CEF80000DFF830E0286000258EE8240096
:10067000DFF820E04FF000475D601D603E460B60F4
:10068000CEF80070506013607FE74FF48843DFE7D7
:10069000AC000020B8440020B0000020BC44002082
:1006A000B8000020A8000020D0B1194A50F8043C3E
:1006B0001268134208D14FF0100383F31188BFF37F
:1006C0006F8FBFF34F8FFEE750F8081C49B14FF012
:1006D000100383F31188BFF36F8FBFF34F8FFEE7D3
:1006E000704710B5044623EA020340F8043C00F0CA
:1006F0009DFC084A54F8041C1368A4F108000B443C
:100700001360FFF70FFFBDE8104000F03DBD00BFD4
:10071000B8440020A800002070B5036C0446856B27
:100720000BB316461A4666B9806801F0F1FDA16860
:10073000236C62680B449342A36014D32368A360C4
:1007400011E0C06801F0E4FD236CE2685B422168BF
:100750001A448A42E26002D262681344E360022EC5
:1007600001D105B1013D0135A563002070BD00BF79
:10077000026C72B1034610B40846D9685C68114433
:10078000A142D96024BF1968D960D96810BC01F0B2
:10079000BFBD704770B50546FFF7B4FD95F84540FD
:1007A00064B2002C16DD6B6AA3B105F1240605E0E6
:1007B000013CE3B25CB26BB16B6A5BB1304600F0F6
:1007C00063FE0028F4D0013C00F0FAFEE3B25CB214
:1007D000002BF1D1FF2385F84530FFF7B5FDFFF77A
:1007E00091FD95F8444064B2002C16DD2B69A3B14D
:1007F00005F1100605E0013CE3B25CB26BB12B6978
:100800005BB1304600F040FE0028F4D0013C00F01F
:10081000D7FEE3B25CB2002BF1D1FF2385F8443060
:10082000BDE87040FFF790BDE8B170B504460D46D5
:10083000FFF768FD226CE36B216803FB02F39A1A51
:10084000FF200A440B440026A663E26084F84400BB
:100850006360A16084F8450005BB236963B9FFF7B5
:1008600073FD012070BD4FF0100383F31188BFF3B7
:100870006F8FBFF34F8FFEE704F1100000F004FE0E
:100880000028ECD00B4B4FF080521A60BFF34F8F13
:10089000BFF36F8FFFF758FD012070BD04F110000A
:1008A000FFF78CFC04F12400FFF788FCFFF74CFDF8
:1008B000012070BD04ED00E040B94FF0100383F358
:1008C0001188BFF36F8FBFF34F8FFEE770B50646F9
:1008D00001FB00F048300D46FFF74CFE044638B1EE
:1008E00045B92060E663256401212046FFF79CFF9F
:1008F000204670BD00F148030360F3E72DE9F8439B
:10090000F0B1002941D0022B33D004461F46904657
:100910008946FFF7D9FDEFF311864FF0100383F3FB
:100920001188BFF36F8FBFF34F8FA26BE36B9A42B7
:100930000FD3022F0DD0002086F31188BDE8F88375
:100940004FF0100383F31188BFF36F8FBFF34F8F06
:10095000FEE794F845503A4649466DB22046FFF707
:10096000DBFE6B1C1DD06B1C5BB284F84530012094
:10097000E2E7C46B012CC8D04FF0100383F3118859
:10098000BFF36F8FBFF34F8FFEE7046C002CBAD01C
:100990004FF0100383F31188BFF36F8FBFF34F8FB6
:1009A000FEE7636A002BE2D004F1240000F06CFD46
:1009B0000028DCD0B8F1000FD9D00120C8F8000021
:1009C000BAE700BF2DE9F04385B00192002864D05A
:1009D000002979D0002704460E464FF00008DFF8C2
:1009E00020911AE0FFF78EFCA36B002B47D1FFF795
:1009F000ABFC019904F1240000F02CFD2046FFF728
:100A0000C9FE00F0C1FB38B94FF08053C9F800307F
:100A1000BFF34F8FBFF36F8F0127FFF773FCA56BF9
:100A2000002D43D1019B93B32FB3FFF78DFC00F052
:100A3000FDFAFFF767FC94F84430FF2B08BF84F8F9
:100A4000448094F84530FF2B08BF84F84580FFF7B9
:100A50007BFC01A902A800F067FD0028C2D0204657
:100A6000FFF798FE00F090FBFFF74CFCA36B73B10F
:100A7000FFF76AFCD0E702A800F04AFDD5E7FFF7D0
:100A800063FC2046FFF786FE00F07EFBC4E7FFF71D
:100A90005BFC002005B0BDE8F0834FF0100383F34A
:100AA0001188BFF36F8FBFF34F8FFEE731462046AB
:100AB000013DFFF75DFEA56323698BB9FFF744FC99
:100AC000012005B0BDE8F083036C002B82D04FF00D
:100AD000100383F31188BFF36F8FBFF34F8FFEE7CF
:100AE00004F1100000F0D0FC0028E7D0044B4FF0D8
:100AF00080521A60BFF34F8FBFF36F8FDEE700BFE6
:100B000004ED00E080B5164DDFF86080154F164EFD
:100B1000DFF85CA04FF0805914E0FFF7F3FBFB68AF
:100B2000DC68201DFFF780FB3368013B33602B68D6
:100B3000013B2B60FFF708FC206BFFF7B5FD20465B
:100B4000FFF7B2FD2B68002BE7D1D8F80030012B5E
:100B5000F8D9CAF80090BFF34F8FBFF36F8FF1E75A
:100B6000B0450020CC440020B8450020F8440020C7
:100B700004ED00E068B10B4B42699A4201D00020BD
:100B80007047806A084B9842F9D0B0FA80F040096B
:100B900070474FF0100383F31188BFF36F8FBFF3DB
:100BA0004F8FFEE7E044002064450020034A044BD9
:100BB0001268D268D26852681A607047C444002034
:100BC00080450020F8B51C4B1C4D1E682B68044660
:100BD000181D0F46FFF728FB40B92B681849D86A43
:100BE0000A680123834022EA03030B60631C19D0C7
:100BF0002B683444A6425C60104B0BD8114A106835
:100C000019680431FFF7F6FA0F4B1A68944238BF9F
:100C10001C60F8BD0D4A10681968BDE8F840043141
:100C2000FFF7E8BA002FE3D0296809480431BDE88E
:100C3000F840FFF7D3BA00BF7C4500206045002094
:100C4000BC450020C444002080450020B44500205D
:100C5000E04400202DE9F84F4FEA8208064640465E
:100C600089461F460B9DFFF785FC002800F08C800D
:100C700082464C20FFF77EFC0446002800F081806D
:100C8000A8F10408D04428F00708C0F830A009F102
:100C9000FF3309F10F0100F1330213F8010F02F8DD
:100CA000010F187808B18B42F7D10A9B4FF0000B67
:100CB000042B28BF0423994604F1040AE36250463A
:100CC00084F843B0FFF786FA04F11800FFF782FAC0
:100CD000C9F10503C4F844B0A361246184F848B0A5
:100CE00064623A4631464046FFF7E2FA206005B1B9
:100CF0002C60FFF707FB3C4A3C4E1368013313603E
:100D00003368002B44D03A4F3B6873B3E36ADFF893
:100D10000481DFF804C1DFF804E1DCF800000125FC
:100D2000DEF800202844CCF8000005FA03F003EBBD
:100D300083030243514608EB8300CEF80020FFF7FF
:100D40004DFAFFF701FB3B68C3B13268E36AD26A30
:100D50009A4213D2274B4FF080521A60BFF34F8F45
:100D6000BFF36F8F2846BDE8F88F3268E36AD26A16
:100D7000DFF8A0809A4298BF3460CAE72846BDE8F1
:100D8000F88F5046FFF790FC4FF0FF30BDE8F88F2A
:100D900034601368012B04D0E36ADFF87880144FC5
:100DA000B7E7DFF87080454608F164072846143538
:100DB000FFF704FABD42F9D10F4F104D3846FFF747
:100DC000FDF92846FFF7FAF90D48FFF7F7F90D4846
:100DD000FFF7F4F90C48FFF7F1F90C4B0C4A1F60D0
:100DE000E36A1560024F94E7B84500206045002093
:100DF000C844002004ED00E09C450020844500200C
:100E000064450020CC440020E0440020C44400207D
:100E1000B4450020F844002098450020BC4500203F
:100E200070B50446324DFFF76DFA002C3FD0261DF9
:100E30003046FFF7F9F930B9E16A2E4A01EB810338
:100E40009B00D3585BB3A36A1BB104F11800FFF7F2
:100E5000EBF9294A296813688C4203F101031360F6
:100E600027D0264A206B1368013B1360FFF71CFC58
:100E70002046FFF719FC224B1B681B6853B1FFF794
:100E800095FEFFF761FA1F4B1B6813B12B689C425C
:100E900018D070BD1C4B4FF0FF321A60F1E71B48B1
:100EA000012203688A4023EA02030360CBE72C682F
:100EB000BDE731461648FFF791F9164A136801332A
:100EC0001360DEE7144B1B6843B14FF0100383F34C
:100ED0001188BFF36F8FBFF34F8FFEE70F4B4FF0BB
:100EE00080521A60BFF34F8FBFF36F8F70BD00BF8A
:100EF00060450020F844002098450020B8450020B7
:100F0000C4440020C844002080450020BC45002087
:100F1000CC440020B04500205C45002004ED00E0FA
:100F200090B12DE9F0411F4E336898420AD0044633
:100F3000FFF7E8F92046FFF71DFE70B9BDE8F04164
:100F4000FFF702BABDE8F0814FF0100383F3118878
:100F5000BFF36F8FBFF34F8FFEE704F10408124F0A
:100F60004046FFF761F9E36A3A6801250F489D4062
:100F700003EB83032A4300EB830041463A60FFF70B
:100F80002DF93368E26ADB6A9A42D7D3084B4FF0F7
:100F900080521A60BFF34F8FBFF36F8FBDE8F041EF
:100FA000FFF7D2B960450020BC450020F84400207E
:100FB00004ED00E030B5174B83B00024019300949A
:100FC0002346802214491548FFF744FE01280CD01F
:100FD000013001D003B030BD4FF0100383F311880E
:100FE000BFF36F8FBFF34F8FFEE74FF0100383F314
:100FF0001188BFF36F8FBFF34F8F0949094A0A4B1E
:101000004FF0FF350D6010601C6003B0BDE830404C
:10101000FFF7FCB97845002050230008050B0008B5
:1010200080450020C84400207C450020024A136807
:1010300001331360704700BF5C4500202DE9F84F75
:10104000464B1B68002B52D1454B1D6801351D6076
:10105000002D59D0DFF82CB1DBF80020954260D389
:10106000DFF808913F4E404F00242DE03F4B1A68B7
:10107000D268D2F80C80D8F8041008F1040A8D4226
:1010800062D35046FFF7D0F8D8F8281008F11800BE
:1010900009B1FFF7C9F8364BD8F82C001B680122BC
:1010A00002FA00FC324A00EB8000514606EB800059
:1010B0004CEA03031360FFF791F83868D8F82C1056
:1010C000C26A914228BF0124D9F800201268002A80
:1010D000CCD14FF0FF32CBF800203B68DB6A03EB4A
:1010E00083039B00F358022B28BF012404E0214A0C
:1010F00000241368013313601F4B1B68002B18BFBB
:1011000001242046BDE8F88F184B1A68126862B1B6
:101110004FF0100383F31188BFF36F8FBFF34F8F2E
:10112000FEE7104E104F0024D7E7144A18681468E1
:1011300013491C6010600A6801320A601B681B6852
:101140002BB1FFF733FD85E7CBF80010C5E7DFF8DB
:1011500034B04FF0FF32CBF800207DE75C45002033
:101160007C450020F844002060450020C444002055
:10117000BC450020F4440020C0450020B4450020B8
:10118000C0440020804500202DE9F84F364C2368EC
:1011900043B94FF0100383F31188BFF36F8FBFF390
:1011A0004F8FFEE7FFF7AEF82368013B236024680A
:1011B000002C50D12D4B1B68002B4CD0DFF8CCA05D
:1011C0002B4DD3462B4EDFF8C8901FE0DBF80C30D8
:1011D000DC6804F1040804F11800FFF725F8404624
:1011E000FFF722F8E06A336807FA00F200EB8000AC
:1011F0001343414609EB80003360FEF7EFFF1E4BBF
:10120000E26A1B68DB6A9A4228BF2F60DAF8003076
:101210000127002BDAD13CB1184B1B681B6803BBBC
:10122000174B4FF0FF321A60164E34683CB101275D
:10123000FFF704FF00B12F60013CF9D134602B6847
:101240004BB1114B4FF080521A60BFF34F8FBFF379
:101250006F8F012400E00024FFF776F82046BDE8F8
:10126000F88FFFF7A3FCDFE75C450020B8450020BE
:10127000C0450020BC45002060450020C44400203B
:1012800080450020F444002004ED00E06445002087
:10129000F844002008B558B10F4B196889B14FF0D8
:1012A000100383F31188BFF36F8FBFF34F8FFEE7F7
:1012B0000A4B4FF080521A60BFF34F8FBFF36F8F0E
:1012C00008BD1A6801321A60FFF77CFCFFF75CFF6B
:1012D0000028EDD008BD00BF5C45002004ED00E013
:1012E000164B1B6833BB1649164A0B601368B3FADA
:1012F00083F3DBB2C3F11F03134803EB83039B00AB
:10130000C258C11842B94FF0100383F31188BFF3DC
:101310006F8FBFF34F8FFEE74A680833526803446C
:101320004A609A4208BF5268084B08BF4A60D268B8
:101330001A607047024B01221A6070475C4500201A
:10134000C0450020BC450020F84400206045002036
:1013500070B50446354DFEF7D5FF002C59D0261D3B
:101360003046FEF761FF30B9E16A314A01EB810393
:101370009B00D358D3B1A36A1BB104F11800FEF748
:1013800053FF31462B48FEF729FF94F848302A4E88
:10139000012B04BF002384F84830FEF7D5FF3368E3
:1013A00063B92B68214A9C4218D070BD23480122A2
:1013B00003688A4023EA02030360DCE7FEF7A2FF2A
:1013C0001F4B1B681B680BBB1E4B4FF0FF321A6094
:1013D000FEF7BAFF2B68154A9C42E6D133685BB131
:1013E000194B1B68BBB14FF0100383F31188BFF397
:1013F0006F8FBFF34F8FFEE70E48144900680968EE
:10140000884211D0BDE87040FFF76ABFFFF7CEFBFE
:10141000DEE72C68A3E70E4B4FF080521A60BFF353
:101420004F8FBFF36F8F70BD136070BD604500209C
:10143000F8440020E0440020C8440020BC450020BF
:10144000C4440020804500205C450020B8450020B1
:1014500004ED00E060B110B50C460A4B1968183174
:10146000FEF7C8FE2046BDE810400121FFF7AABBE9
:101470004FF0100383F31188BFF36F8FBFF34F8FCB
:10148000FEE700BF60450020F8B5C368DC682CB3F8
:1014900004F118052846FEF7C7FE174B1B6833BB3F
:1014A000271D164E3846FEF7BFFEE36A3268012557
:1014B00013489D4003EB83032A43394600EB830026
:1014C0003260FEF78BFE0F4BE26A1B68DB6A9A42C2
:1014D00083BF0D4B012018600020F8BD4FF01003B2
:1014E00083F31188BFF36F8FBFF34F8FFEE7294659
:1014F0000648FEF773FEE6E75C450020BC45002089
:10150000F844002060450020C045002064450020CC
:10151000034A044B12681B6880E80C00704700BF48
:10152000C04400207C450020F8B558B309B30D46EF
:101530000446FEF7E7FE2B68DFF880E0591CDEF872
:101540000020666833D01C4821680768B94206D07D
:10155000B24204D30125FEF7F7FE2846F8BD921BE0
:101560009A4218D300232B600125FEF7EDFE284692
:10157000F8BD4FF0100383F31188BFF36F8FBFF3F3
:101580004F8FFEE74FF0100383F31188BFF36F8F87
:10159000BFF34F8FFEE70068DEF800109B1A2B6048
:1015A00084E803000025FEF7CFFE2846F8BD00259D
:1015B000FEF7CAFE2846F8BDC04400207C45002046
:1015C000014B01221A607047C045002040F0BF6007
:1015D000024B40F40030D860704700BF00ED00E0DF
:1015E000C3785BB9037801215A09164803F01F0339
:1015F000203201FA03F340F82230704730B4124B26
:101600008278D9684478C9430F23C1F30221C1F11C
:101610000405CB40AC401340027823431B0102F188
:101620006042DBB202F5614282F8003303780122A6
:1016300003F01F0003495B09824041F8232030BCBE
:10164000704700BF00E100E000ED00E0CB782DE93D
:10165000F04103F00F06DB0648BF8B780C8848BFCB
:101660001E4314F0FF0F26D00568002301274FF01A
:101670000F0803E00133082B1BD00C8807FA03F294
:1016800032EA0404F6D19C0091F803E008FA04FC65
:1016900025EA0C0506FA04F4BEF1280F45EA040514
:1016A00038D0BEF1480F03F1010308BF0261082BD7
:1016B000E3D105600C88FF2C2AD945680023012757
:1016C0004FF00F0C03E00133082B20D00C8803F1FE
:1016D000080207FA02F232EA0404F4D191F803E0B6
:1016E0009C00BEF1280F04BF426191F803E00CFAA0
:1016F00004F8BEF1480F03F1010325EA080506FAD4
:1017000004F408BF0261082B45EA0405DED14560F8
:10171000BDE8F0814261ADE78368194214BF012042
:1017200000207047016170474161704730B4214A21
:10173000536803F00C03042B06D0082B25D01BB1F3
:101740001D4A1346026001E01B4B0360194A1B4C03
:1017500051681B4DC1F30311615CCB40436051687C
:10176000C1F30221615C23FA01F181605168C1F388
:10177000C221615CCB40C3605268C2F38132AA5C73
:1017800030BCB3FBF2F30361704753685168C3F395
:101790008343C90303F1020307D55268920304D4BB
:1017A000054A02FB03F30360D0E7064A02FB03F39A
:1017B0000360CBE70010024000127A00080000200E
:1017C0000400002000093D0029B9054A936923EA75
:1017D000000090617047024B9A691043986170470E
:1017E0000010024029B9054AD36923EA0000D061FC
:1017F0007047024BDA691043D8617047001002400D
:10180000254A038890429BB212D002F500629042B2
:101810000ED0B0F1804F0BD0A2F59832904207D095
:1018200002F58062904203D002F58062904203D1BB
:101830004A8823F070031343184A904224D002F5DB
:101840008062904220D0CA8823F440739BB2134335
:1018500003808A88104B82850A88984202850ED0C0
:101860000F4B98420BD003F54063984207D003F525
:101870008063984203D003F58063984201D10B7ACC
:10188000038601238382704703808B8883850B88BE
:101890000385012383827047002C01400010004023
:1018A00000340140038CF0B423F480531B041B0C60
:1018B0000384028C848822F40052838B0E891204E4
:1018C00023F4E643120C42EA0632104D1B044F8803
:1018D0000E881B0C42EA073243EA0623A84292B262
:1018E000A4B29BB20BD005F50065A84207D0848056
:1018F0008383CB88F0BCA0F84030028470478D8988
:1019000024F4804444EA8514A4B2F0E7002C01409A
:10191000038829B923F001031B041B0C03807047C3
:101920009BB243F001030380704700BFB0F844301E
:1019300021B9C3F30E03A0F8443070476FEA434364
:101940006FEA53439BB2A0F844307047038829B92B
:1019500023F080031B041B0C038070479BB243F0F1
:1019600080030380704700BF838B23F400631B0454
:101970001B0C43EA012189B28183704730B50446CC
:101980000D46038ACA889BB223F440531343038253
:1019900082890B89888892B24989034322F4B05224
:1019A0000B4322F00C0213439BB2A381A38AAA89A2
:1019B0009BB223F4407387B01343A38201A8FFF7BF
:1019C000B5FE04991A48039BA289844208BF0B46BE
:1019D00012F4004F2A6803EB830314BF52009200F5
:1019E00003EB8303B3FBF2F3124DA189A5FB0320A4
:1019F0006422400900FB12330A044FEA00100AD4A3
:101A00001A013232A5FB0223C3F3431303439BB2F3
:101A1000238107B030BDD9003231A5FB0131C1F3BC
:101A2000421242EA00039BB2238107B030BD00BFDF
:101A3000003801401F85EB51838929B923F40053F5
:101A40001B041B0C838170479BB243F400538381BA
:101A5000704700BF10B401F01F04C1F3421101230D
:101A6000012903FA04F30FD002290CBF10301430FF
:101A70002AB9026822EA0303036010BC70470268B7
:101A80001343036010BC70470C30F1E7C1F3080149
:101A9000818070478088C0F308007047038819422E
:101AA00014BF012000207047C94389B201807047EC
:101AB000C1F3421210B4012301F01F04012A03FAFA
:101AC00004F315D0022A0CBF028A828A92B2134014
:101AD000028892B24BB10123090A03FA01F10A42CA
:101AE00014BF1846002010BC7047184610BC704741
:101AF000828992B21340EBE7090A012303FA01F14C
:101B0000C94389B20180704700B583B0FEF7FAFB84
:101B1000002201212A20FEF7CFFE1449144A052392
:101B2000086001920093B422002312491248FFF783
:101B300091F8124A0223019200933C22002310499B
:101B40001048FFF787F8104A0323019200933C22C4
:101B50000E4900230E48FFF77DF80E4B1868FFF77B
:101B60005FF903B05DF804EBFEF7EEBBE045002043
:101B7000E845002058230008291C0008EC450020F7
:101B800064230008DD1D0008E445002070230008E0
:101B9000C11B0008DC45002010B504464021074861
:101BA000FFF782FF21460548FFF770FF40210348F9
:101BB000FFF774FF0028F9D010BD00BF00380140C6
:101BC00008B51520FFF7E8FF4FF400510848FFF76C
:101BD000A9FD4FF4FA70FFF75DFB4FF40051044884
:101BE000FFF7A2FD4FF4FA70FFF754FBECE700BFDC
:101BF00000100140A1B138B50446451840210948FC
:101C0000FFF752FF14F8011B0648FFF73FFF402182
:101C10000448FFF743FF0028F9D0AC42EED138BDAD
:101C2000704700BF003801402DE9F8433D4F3E4E5C
:101C30003D46B846DFF8009100244FF496722946DD
:101C40003068FEF7BFFE0128F7D10134E4B20B2C57
:101C500001D83D19F1E7FEF755FB0A21314800F0A4
:101C6000A5F9FA7AC3B29A4204D0FEF76DFB2D4D66
:101C70000024E2E798F80A30C0F307209842F4D134
:101C80000C212848FFF7B6FF98F802C098F804E046
:101C900098F8030098F8051098F8065098F807206F
:101CA00098F8084098F8093040EA0C2041EA0E21E3
:101CB00043EA042342EA0522A9F80000A9F8021029
:101CC000A9F80420A9F80630B9F80010B9F80020E6
:101CD000013989B2C2F34E02144800F0BBF9B9F8D9
:101CE0000210B9F80220013989B2C2F34E024FF056
:101CF000804000F0AFF9B9F80410B9F804200139B8
:101D000089B2C2F34E020A4800F0A4F9B9F80610ED
:101D1000B9F80620013989B2C2F34E02054800F035
:101D200099F9A2E7C4450020E0450020002C0140BD
:101D30000004004000080040D045002030B50B4CA6
:101D400083B0102201234FF40055204601A98DF8DD
:101D500007208DF80630ADF80450FFF777FC2946D0
:101D60002046FFF7DFFC03B030BD00BF001001408C
:101D700030B50A4D83B001244823284601A98DF8C7
:101D80000730ADF804408DF80640FFF75FFC2146B0
:101D90002846FFF7C7FC03B030BD00BF0008014074
:101DA00010B501210C48FFF7B7FC012802D0002430
:101DB000204610BD04460A20FFF76CFA214606486B
:101DC000FFF7AAFC01280446F1D101210248FFF7E0
:101DD000A3FC0128F9D0EBE700080140104C80B5C6
:101DE00013202746FFF7D8FE0E4D002604E00328F7
:101DF00010D00A20FFF74EFAFFF7D2FF23781844DD
:101E0000C0B201282070F2D12868FFF7A1FA387813
:101E10000328EED12868FFF783F82670E9E700BFB2
:101E2000D8450020E445002070B5284C86B001213B
:101E300044F20400FFF7C8FC254D20466946032202
:101E400018234FF400768DF802208DF80330ADF89A
:101E50000060FFF7FBFB694620464FF480620423D5
:101E60000024ADF800208DF80330FFF7EFFB0C23C2
:101E700028464FF4165202A9ADF812300292ADF87E
:101E80000C40ADF80E40ADF81040ADF81440FFF72F
:101E900075FD0122284640F22551FFF7DBFD0121A7
:101EA0002846FFF7C9FD4FF44070FFF78FFB012371
:101EB000252201A88DF806408DF804208DF8053004
:101EC0008DF80730FFF78CFB06B070BD00080140AD
:101ED0000038014000B54FF4407083B0FFF776FB47
:101EE00000F082F8FFF72AFFFFF742FFFFF79CFFA1
:101EF00000F092F840F6C41241F28731124800F027
:101F0000A9F840F6293241F251614FF0804000F0CB
:101F1000A1F840F6055241F609210C4800F09AF864
:101F20004FF4FA6241F63F71094800F093F8094A0C
:101F30000123019200933C22002307490748FEF742
:101F400089FEFFF737F8FEE7002C0140000400404F
:101F500000080040DC4500207C230008091B000825
:101F600000B540F2255183B00E48FFF7A1FD0128CE
:101F700002D003B05DF804FB40F225510948FFF799
:101F8000BBFD0848FFF786FD074A8DF803000023D4
:101F900010680DF1030101AAFEF7B0FC03B05DF873
:101FA00004FB00BF00380140E0450020A9B1F0B4B7
:101FB000FF2422464D1EADB2094F0A4E0544411E74
:101FC00011F8013F5340FA5CA94282EA0402F45C32
:101FD000F6D144EA0220F0BC70474FF6FF7070471C
:101FE000882400088823000808B501210846FFF767
:101FF000F9FB01214FF40060FFF7E6FB012104200B
:10200000FFF7F0FB01210220FFF7ECFBBDE80840E1
:1020100001217C20FFF7D8BB10B540F6080482B040
:10202000182201A9032309488DF807208DF80630EE
:10203000ADF80440FFF70AFB40F2022301A904486F
:10204000ADF80430FFF702FB02B010BD00080140FC
:10205000000C0140F0B5044617461E4B1E4A1B6893
:1020600089B0A2FB03235B0D013B0026ADF80810ED
:1020700001A9ADF80430ADF80A60ADF80660FFF7CD
:10208000BFFB20460121FFF761FC012560232046AC
:1020900004A9ADF81030ADF81670ADF81860ADF8C1
:1020A0001250FFF7FFFB20460821FFF75DFC294691
:1020B0002046FFF74BFC29462046FFF729FC074B3B
:1020C0009C4201D009B0F0BD29462046FFF72EFC06
:1020D00009B0F0BD1800002083DE1B43002C014036
:1020E0000649074A074B9A42BEBF51F8040B42F813
:1020F000040BF8E704488047044800479C25000883
:1021000000000020840000209921000849010008F7
:102110001F49204A002301E041F8043B9142FBD3D0
:10212000FFF7D8FEFEE7FEE7FEE7FEE7FEE7FEE785
:10213000FEE7FEE7FEE7FEE7FEE7FEE7FEE7FEE777
:10214000FEE7FEE7FEE7FEE7FEE7FEE7FEE7FEE767
:10215000FEE7FEE7FEE7FEE7FEE7FEE7FEE7FEE757
:10216000FEE7FEE7FEE7FEE7FEE7FEE7FEE7FEE747
:10217000FEE7FEE7FEE7FEE7FEE7FEE7FEE7FEE737
:10218000FEE7FEE7FEE7FEE7FEE7FEE7FEE7FEE727
:1021900084000020F045002030B43C4B3C491868D6
:1021A00082B040F0010018605D680020294059604D
:1021B00019684FF41F0421F0847121F480311960F3
:1021C00019681A4621F480211960596821F4FE012A
:1021D00059609C6000900190196841F48031196049
:1021E00003E0009BB3F5A06F09D0136803F400333C
:1021F0000193009B01330093019B002BF1D0234BF3
:102200001B6813F4003318BF01230193019B012BBA
:1022100006D0204B4FF000629A6002B030BC70478D
:102220001D4A1A4B1068194640F0100010601068E3
:1022300020F003001060106840F0020010605A683F
:102240005A605A685A605A6842F480625A605A6802
:1022500022F47C125A605A6842F4E8125A601A68F2
:1022600042F080721A600B68084A9B01FBD5114648
:10227000536823F003035360536843F00203536031
:102280004B6803F00C03082BFAD1C2E700100240A0
:102290000000FFF800ED00E00020024008B5074B09
:1022A000044613B10021AFF30080054B1868836A20
:1022B00003B19847204600F03EF800BF0000000040
:1022C0008C2500080E4B70B51E460E4C0025E41AF6
:1022D000A410A54204D056F8253098470135F8E7F8
:1022E00000F02AF8084B094C1E46E41AA4100025F9
:1022F000A54204D056F8253098470135F8E770BD5F
:102300007C0000207C0000207C0000208000002059
:1023100010B5431E0A44914204D011F8014B03F852
:10232000014FF8E710BD03460244934202D003F880
:10233000011BFAE77047FEE7F8B500BFF8BC08BC20
:102340009E467047F8B500BFF8BC08BC9E46704773
:1023500049444C45000000007461736B315F746147
:10236000736B00006B65795F7461736B0000000034
:102370006C6564305F7461736B000000737461722C
:10238000745F7461736B000000C0C101C30302C2BB
:10239000C60607C705C5C404CC0C0DCD0FCFCE0EA5
:1023A0000ACACB0BC90908C8D81819D91BDBDA1A15
:1023B0001EDEDF1FDD1D1CDC14D4D515D71716D685
:1023C000D21213D311D1D010F03031F133F3F232F5
:1023D00036F6F737F53534F43CFCFD3DFF3F3EFE65
:1023E000FA3A3BFB39F9F83828E8E929EB2B2AEAD5
:1023F000EE2E2FEF2DEDEC2CE42425E527E7E62645
:1024000022E2E323E12120E0A06061A163A3A262B4
:1024100066A6A767A56564A46CACAD6DAF6F6EAE24
:10242000AA6A6BAB69A9A86878B8B979BB7B7ABA94
:10243000BE7E7FBF7DBDBC7CB47475B577B7B67604
:1024400072B2B373B17170B0509091519353529274
:1024500096565797559594549C5C5D9D5F9F9E5EE4
:102460005A9A9B5B99595898884849894B8B8A4A54
:102470004E8E8F4F8D4D4C8C4484854587474686C4
:10248000824243834181804000C1814001C080413C
:1024900001C0804100C1814001C0804100C1814034
:1024A00000C1814001C0804101C0804100C1814024
:1024B00000C1814001C0804100C1814001C0804114
:1024C00001C0804100C1814001C0804100C1814004
:1024D00000C1814001C0804100C1814001C08041F4
:1024E00001C0804100C1814000C1814001C08041E4
:1024F00001C0804100C1814001C0804100C18140D4
:1025000000C1814001C0804101C0804100C18140C3
:1025100000C1814001C0804100C1814001C08041B3
:1025200001C0804100C1814000C1814001C08041A3
:1025300001C0804100C1814001C0804100C1814093
:1025400000C1814001C0804100C1814001C0804183
:1025500001C0804100C1814001C0804100C1814073
:1025600000C1814001C0804101C0804100C1814063
:1025700000C1814001C0804100C1814001C0804153
:1025800001C0804100C18140430000001C000020C8
:042590000000000047
:08259400B4DBFF7F0100000031
:10259C00AAAAAAAA02040608000000000102030469
:1025AC00010203040607080900A24A040000000007
:1025BC00000000000000000000000000000000000F
:1025CC00000000000000000000000000882500084A
:1025DC0000000000000000000000000000000000EF
:1025EC0000000000000000000000000000000000DF
:1025FC0000000000000000000000000000000000CF
:10260C0000000000000000000000000011010008A4
:04261C00ED000008C5
:0400000508000000EF
:00000001FF
